:020000040800F2
:10000000E006002035020008291700083D15000809
:1000100025170008E1030008011A0008000000008D
:100020000000000000000000000000003117000880
:10003000E5030008000000002D1700083517000830
:100040004F0200084F0200084F0200084F0200084C
:100050004F0200084F020008E90300084F020008A1
:100060004F0200084F0200084F0200084F0200082C
:100070004F0200084F0200084F0200084F0200081C
:100080004F0200084F0200084F0200080000000065
:100090000000000000000000000000004F02000807
:1000A0004F0200084F0200084F0200084F020008EC
:1000B0004F0200084F0200084F0200084F020008DC
:1000C0004F0200084F0200084F0200084F020008CC
:1000D0004F0200084F020008F51900080000000058
:1000E0004F0200084F0200084F0200080000000005
:1000F0000000000000000000000000004F020008A7
:10010000000000004F0200084F0200084F020008E4
:1001100000000000000000000000000000000000DF
:100120004F0200084F0200084F0200084F0200086B
:100130004F02000800000000000000000000000066
:100140000000000000000000000000004F02000856
:100150004F0200084F0200084F0200084F0200083B
:100160004F0200084F0200080000000000000000DD
:10017000000000000000000000000000000000007F
:10018000000000004F020008000000000000000016
:100190004F02000800F002F800F03CF80AA090E8D6
:1001A000000C82448344AAF10107DA4501D100F032
:1001B00031F8AFF2090EBAE80F0013F0010F18BFC3
:1001C000FB1A43F0010318474C1D00006C1D000092
:1001D000103A24BF78C878C1FAD8520724BF30C873
:1001E00030C144BF04680C60704700000023002445
:1001F00000250026103A28BF78C1FBD8520728BF37
:1002000030C148BF0B6070471FB501F061FE1FBDD4
:1002100010B510BD00F0A9F81146FFF7F5FF01F089
:10022000D9FC00F0C7F803B4FFF7F2FF03BC00F0FD
:10023000CFF800000948804709480047FEE7FEE77D
:10024000FEE7FEE7FEE7FEE7FEE7FEE7FEE7FEE786
:1002500004480549054A064B70470000E5170008A9
:1002600095010008E0000020E0060020E0020020E8
:10027000E002002053EA020C00F069802DE9F04B07
:100280004FF00006002B1FBFB3FA83F503FA05F405
:1002900024FA05F65E4012BF1643B2FA82F502FA5E
:1002A00005F4C5F120051EBF22FA05FC44EA0C0442
:1002B000203556EA044C4FEA144418BF641C4FF032
:1002C00000084FF00009904271EB030C39D300296C
:1002D00019BFB1FA81F701FA07F6B0FA80F700FA10
:1002E00007F6C7F120071EBF20FA07FC46EA0C06F6
:1002F0002037B6FBF4FCA7EB0507103F07F01F0BF8
:10030000CBF120062CFA06F60CFA0BFB44BFB346E1
:100310000026202FA4BF5E464FF0000B5BEA060CC0
:1003200008BF4FF0010B19EB0B0948EB0608ABFBBC
:10033000027C06FB02CC0BFB03CCC01B71EB0C0157
:10034000C1E70B46024641464846BDE8F08B13B56F
:10035000084318BF4FF0FF300146AFF30080BDE8FF
:100360001C407047704770477047754600F02CF886
:10037000AE4605006946534620F00700854618B092
:1003800020B5FFF765FFBDE820404FF000064FF0B5
:1003900000074FF000084FF0000BAC46ACE8C00976
:1003A000ACE8C009ACE8C009ACE8C00921F007011D
:1003B0008D46704710B50446AFF300802046BDE877
:1003C0001040FFF730BF00000048704710000020C9
:1003D00001491820ABBEFEE726000200704700006E
:1003E000FEE7000070470000012000F087B8000021
:1003F00070B5866D044600F067F994F8351002294F
:1004000028D105462068216C026822F0160202609D
:10041000426922F08002426109B9A16C19B10168F8
:1004200021F008010160016821F00101016000BFB5
:1004300020680068C00715D000F046F9401B062868
:10044000F6D320206065032084F83500002184F86D
:10045000341070BD802060650120002184F83410C4
:1004600070BD00BFE06D3F2101FA00F0B0600120D7
:1004700084F835000020002184F8341070BD00009D
:1004800090F83510022909D1052180F8351000684F
:10049000016821F001010160002070478021416561
:1004A00001207047B0B5044600F00EF9054640F251
:1004B0000000C2F200000078611C18BF044400BFB5
:1004C00000F002F9401BA042FAD3B0BD012818BFCA
:1004D000704740F27001C2F20001C86860B108467E
:1004E00050F8283B4FF04A0C5A1C41F81E2B0122B1
:1004F00001F803C000F0F8BF7047000043F6144154
:10050000C4F201010A68024214BF08607047FFF795
:10051000DDBF00002DE9F04F82B000F13E4241F214
:10052000000502F1FF77C4F20205072243F6004EF0
:100530004FEAB726A84208BF0422C4F2010E042ED7
:1005400038BF4FEAB7220125002600274FF00008E8
:10055000009208E008F101080437B8F1100F06F125
:10056000020600F0A7800C6805FA08F914EA090FE2
:10057000F0D0D1F804B003220BF0030CACF101046D
:10058000B240012C6FEA020A10D88268CC6802EAF5
:100590000A02B440224382604268CBF3001422EA8C
:1005A000090204FA08F42243426005E0BCF1030F9B
:1005B00002D14FF0030C20E0C2688C6802EA0A0204
:1005C000B4402243BCF1020FC26016D16FF00302A7
:1005D00002EA58020244D2F820C007F01C050F239B
:1005E0000C69AB402CEA030304FA05F52B431362B4
:1005F000D1F804B001250BF0030C02680CFA06F3E5
:1006000002EA0A021A431BF4403F0260A2D0002211
:1006100043F644030192C4F202031A684FF6084CF1
:1006200042F480421A601A68CFF6FF7C02F48042DE
:100630000192019A28F00302724452F80C3007F03C
:100640000C050F24AC40A343009C04FA05F52B4392
:1006500042F80C30DEF808204B6842EA090543F600
:100660000C4CDC0258BF22EA0905CEF80850C4F24F
:10067000010CDCF800209C0242EA090558BF22EA7E
:100680000905CCF80050DEF804209C0342EA090575
:1006900058BF22EA0905CEF80450DEF80020DB033B
:1006A00042EA090558BF22EA0905CEF800500125A3
:1006B00050E700BF02B0BDE8F08F0000002A08BF7D
:1006C000090481617047000040F2DC00C2F20000C2
:1006D0000068704740F2000040F2DC01C2F2000006
:1006E000C2F2000100780A681044086070470000F8
:1006F00080B543F60040C4F20200016841F4007185
:100700000160016841F480610160016841F4807119
:100710000160032000F08AF8002000F005F800F0E6
:1007200027F8002080BD000070B540F20006C2F23C
:10073000000640F208013278C2F200014FF47A73E9
:100740000968B3FBF2F20446B1FBF2F1084600F08F
:1007500045FB0F2C4FF0010508D838B94FF0FF309A
:1007600021460022002500F035F87460284670BD4F
:1007700082B0002043F640010190C4F202014A68B1
:1007800042F480424A604A6802F480420192019A2F
:100790000090086840F080500860086800F08050C1
:1007A00000900098072002B000F040B8002848BF31
:1007B0007047C1B200F01F00012202FA00F04EF2B1
:1007C0000012CEF2000242EAD10121F003010860DA
:1007D0007047000010B54EF60C5CCEF2000CDCF851
:1007E0000030C3F3022E8EF00704042C28BF04242B
:1007F000BEF103034FF0FF3E0EFA04F438BF0023AE
:10080000A14399400EFA03F39A43114300F00F02FB
:1008100000F160430901043A03F56443624400288F
:1008200048BF02F10C03197010BD00004EF60C51C8
:10083000CEF200010A684FF6FF031A4060F30A2265
:1008400042F0806040F0FD70086070472DE9F04193
:10085000002800F08B8043F60808C4F20208044622
:10086000D8F8F8030D4600F00700884207D288F850
:10087000F853D8F8F80300F00700A84276D12068B2
:10088000810717D5410705D5D8F8001041F4E0518C
:10089000C8F80010010705D5D8F8001041F46041F0
:1008A000C8F80010D8F80010A26821F0F001114338
:1008B000C8F80010C0073FD1D8F8F80300F00700CF
:1008C000A84207D988F8F853D8F8F80300F00700D1
:1008D000A8424BD12068410707D5D8F80010E2683C
:1008E00021F4E0511143C8F80010000708D5D8F8EA
:1008F0000000216920F4604040EAC100C8F800000F
:1009000000F07CF8D8F8001041F6EA62C1F3031158
:10091000C0F60002515C40F2080220FA01F140F2F8
:100920000400C2F200000068C2F200021160FFF78A
:10093000FBFE0020BDE8F0816068811E022907D21D
:1009400058F8081C89015CBF0120BDE8F08111E066
:10095000012807D158F8081C89035CBF0120BDE8B5
:10096000F08107E058F8081C890703D40120BDE88E
:10097000F08100BFD8F8001021F003010843C8F847
:100980000000FFF7A1FE064641F28837D8F80000C4
:10099000616800F00C00B0EB810F8DD0FFF794FE82
:1009A000801BB842F2D90320BDE8F08140F2080074
:1009B00043F60801C2F20000C4F2020100680968AF
:1009C00041F6FA62C1F38221C0F60002515CC840D0
:1009D0007047000040F2080043F60801C2F2000030
:1009E000C4F202010068096841F6FA62C1F34231BB
:1009F000C0F60002515CC8407047000010B543F6D5
:100A00000404C4F20204606800F00C0142F20040E9
:100A10000829C0F2F40007D0042918BF10BD41F224
:100A20000020C0F27A0010BD216801F03F02216869
:100A300023684902C3F3881106D4A1FB00010023F7
:100A4000FFF718FC07E000BF41F20020C0F27A0077
:100A50004843B0FBF2F021680222C1F3014102EBEE
:100A60004101B0FBF1F010BD2DE9F04182B000284A
:100A700068D00446007843F60006C007C4F20206B8
:100A80000BD0B06800F00C00042840F09F80306864
:100A9000800302D56068002854D0207880071AD5DA
:100AA000B06810F00C0F09D0B06800F00C000828F6
:100AB00040F0A6807068400200F1A2803068800794
:100AC00002D5E06801283DD13068216920F0F800A6
:100AD00040EAC10030602078000737D42078400712
:100AE0004CD4A56955B3B06800F00C00082840F05C
:100AF000BB80012D26D07068E16900F480028A4233
:100B000020D1216A00F03F028A421BD147F6C07112
:100B1000626A0140B1EB821F14D1A16A4FF6FF73E4
:100B2000C903994300F44032A1F580318A4209D1CA
:100B3000E16A00F07060B0EB016F03D1002002B0F9
:100B4000BDE8F081012002B0BDE8F08160690028B5
:100B500040F20000C4F2472076D00121C0F8801E88
:100B6000FFF7B2FD054600BF706F8007B6D4FFF7F0
:100B7000ABFD401B0228F7D9DDE000BF306C10F060
:100B800080580AD100200190306C40F080503064D1
:100B9000306C00F080500190019847F20007C4F2D9
:100BA00000073868C00541D4386840F48070386068
:100BB000FFF78AFD054600BF3868C00536D4FFF749
:100BC00083FD401B0228F7D9B5E000BFB06800F0F4
:100BD0000C00082803D1706840023FF558AF6068E8
:100BE000B0F5803F07D0B0F5A02F40F08D80306881
:100BF00040F480203060306840F4803030608DE018
:100C0000E068002852D00020C4F247200121016092
:100C1000FFF75AFD054600BF306880073FF554AF27
:100C2000FFF752FD401B0228F6D984E0A068012896
:100C300005D005284ED1306F40F004003067306F8A
:100C400040F0010030674FE00021C0F8801EFFF740
:100C50003BFD0546706F80077FF540AFFFF734FD21
:100C6000401B0228F6D966E00027C4F2472700207F
:100C70003866FFF729FD022D05460BD1306880014B
:100C80005ED5FFF721FD401B02284FF00300F5D988
:100C900055E700BF306880017FF550AFFFF714FDC6
:100CA000401B02284FF00300F4D948E70020C4F2AB
:100CB000472000210160FFF707FD054630688007E7
:100CC0007FF509AFFFF700FD401B02284FF003003E
:100CD000F4D934E7316F002821F001013167316F19
:100CE00021F0040131674DD0FFF7EEFC054641F2DB
:100CF000883700BF306F800756D4FFF7E5FC401BF4
:100D0000B842F7D917E000BF3168002821F48031DC
:100D10003160316821F4802131604FD0FFF7D4FC7D
:100D2000054600BF306880033FF5B7AEFFF7CCFC47
:100D3000401B6428F6D9032002B0BDE8F08100BF53
:100D400004F11C052FCD084340EA8210D9034FF669
:100D5000FF729143A1F5803140EA0560084370605D
:100D600001203866FFF7B0FC044600BF3068800100
:100D70003FF5E4AEFFF7A8FC001B02284FF003008C
:100D8000F4D9DCE6FFF7A0FC054641F2883700BF46
:100D9000306F800708D5FFF797FC401BB8424FF033
:100DA0000300F5D9CBE600BFB8F1000F7FF499AE90
:100DB000306C20F08050306493E600BFFFF784FC75
:100DC000054600BF306880037FF567AEFFF77CFC07
:100DD000401B64284FF00300F4D9B0E6411E002008
:100DE000B0EB116F1CBF012070474EF21002CEF223
:100DF000000251604EF62351CEF20001F0230B7039
:100E00000721906011607047704700007047000034
:100E1000B0B582B0044600680168C368426901F059
:100E20002F05202D03F0200506D12DB1204602B05C
:100E3000BDE8B04000F0E6BC5FEA017C1EBF02F0F6
:100E4000010E03F4907212EB0E0253D1226B012AB1
:100E500005D111F0100218BF13F0100236D10A06A6
:100E600022D513F080021FD094F83D1021293FD1E4
:100E7000A168B1F5805F03D12169002900F0728279
:100E8000216A4A1C226209784160E18C01390A0416
:100E9000E1842DD1C16821F08001C160C16841F0B9
:100EA0004001C16002B0B0BD490621D513F0400138
:100EB0001ED0C16821F04001C1602021204684F885
:100EC0003D1002B0BDE8B04000F030BB0021019100
:100ED000016801914168019101994069400613D46C
:100EE000A08DE18DE28D002A18BF884240F0BE81BE
:100EF00002B0B0BDCA0718BF13F4807240F0BA80C8
:100F00004A0700F1BD80C2E0A16B0868426893B255
:100F1000002BEDD0A08D8342EAD2E285C969B1F5FC
:100F2000807F00F09D80206850E8030F216820F446
:100F3000807041E80302DAB1206850E8030F2168AD
:100F400020F4807041E8030292B1206850E8030F5A
:100F5000216820F4807041E803024AB1206850E81B
:100F6000030F216820F4807041E80302002ADAD1DF
:100F7000206850E8050F216820F0010041E80502D3
:100F8000DAB1206850E8050F216820F0010041E83F
:100F9000050292B1206850E8050F216820F0010099
:100FA00041E805024AB1206850E8050F216820F0A9
:100FB000010041E80502002ADAD1206850E8050F57
:100FC000216820F0400041E80502DAB1206850E8CD
:100FD000050F216820F0400041E8050292B1206829
:100FE00050E8050F216820F0400041E805024AB1B1
:100FF000206850E8050F216820F0400041E8050214
:10100000002ADAD1202084F83E00002020632068E6
:1010100050E8030F216820F0100041E80302DAB124
:10102000206850E8030F216820F0100041E8030217
:1010300092B1206850E8030F216820F0100041E8C9
:1010400003024AB1206850E8030F216820F0100025
:1010500041E80302002ADAD1A06BFFF7C9F9A08D9D
:10106000E18D401A81B2204602B0BDE8B040FFF7E2
:10107000CBBE00BF226C42F0010222644A0706D5B3
:10108000BEF1000F03D0226C42F0020222648A07F4
:1010900006D5BEF1000F03D0226C42F00402226498
:1010A000BCF1000F09D545EA0E02B2FA82F25209EC
:1010B00003D1226C42F008022264226C002A3FF421
:1010C00017AF11F0200118BF002D03D0204600F00B
:1010D00099FB20684069216C00F0400001F0080194
:1010E000401800F0B58000BF206850E8030F216869
:1010F00020F4907041E80302BAB3206850E8030F6F
:10110000216820F4907041E8030272B3206850E82F
:10111000030F216820F4907041E803022AB320688D
:1011200050E8030F216820F4907041E80302002A80
:10113000DAD11AE0206850E8050F216820F001009C
:1011400041E80502DAB1206850E8050F216820F077
:10115000010041E8050292B1206850E8050F2168BE
:1011600020F0010041E805024AB1206850E8050F6F
:10117000216820F0010041E80502002ADAD1206B45
:10118000012824D1206850E8030F216820F01000C6
:1011900041E80302DAB1206850E8030F216820F02B
:1011A000100041E8030292B1206850E8030F216863
:1011B00020F0100041E803024AB1206850E8030F14
:1011C000216820F0100041E80302002ADAD1202033
:1011D00084F83E00002020632068406940063FD527
:1011E000206850E8050F216820F0400041E8050222
:1011F000DAB1206850E8050F216820F0400041E88E
:10120000050292B1206850E8050F216820F04000E7
:1012100041E805024AB1206850E8050F216820F036
:10122000400041E80502002ADAD1A06BC0B141F2CA
:10123000F971C0F600010165FFF722F900283FF4BB
:1012400057AEA06B016D02B0BDE8B040084700BFCB
:101250002046FFF7DBFD0020206402B0B0BD00BFD8
:10126000204602B0BDE8B040FFF7D0BD401A21686B
:1012700051E8031F226821F4907142E80313DBB1A7
:10128000216851E8031F226821F4907142E803139A
:1012900093B1216851E8031F226821F4907142E85C
:1012A00003134BB1216851E8031F226821F49071A8
:1012B00042E80313002BDAD1216851E8051F2268A8
:1012C00021F0010142E80513DBB1216851E8051F57
:1012D000226821F0010142E8051393B1216851E829
:1012E000051F226821F0010142E805134BB1216876
:1012F00051E8051F226821F0010142E80513002B87
:10130000DAD1202184F83E1000212163216851E8C0
:10131000031F226821F0100142E80313002B3FF461
:10132000A1AE216851E8031F226821F0100142E8B4
:101330000313002B3FF496AE216851E8031F226887
:1013400021F0100142E80313002B3FF48BAE21681B
:1013500051E8031F226821F0100142E80313002B1B
:10136000D4D17FE6216A31F8022B6FF35F2242600D
:1013700021628AE5002804BF0120704710B50446A9
:1013800090F83D0028B9002084F83C00204600F089
:1013900021F8242084F83D002068C16821F4005120
:1013A000C160204600F0AEFA2068016921F4904146
:1013B0000161416921F02A014161C16841F4005194
:1013C000C16000202021206484F83D1084F83E1084
:1013D00010BD000080B586B0016844F20040C4F240
:1013E0000000814202D006B080BD00BF002143F65C
:1013F00030020191C4F20202136900F5DE3043F4B9
:1014000000331361136903F400330193019B0191CD
:10141000136843F001031360126802F001020192A5
:10142000019A0C2201920222CDE9022104910721A6
:10143000059101A9FFF76EF8262000210022FFF791
:10144000C9F92620FFF7B2F906B080BD90F83E300A
:10145000202B0BD100294FF0010318BF002A01D126
:101460001846704790F83C30012B01D1022070479C
:1014700000230363816222218285C285036480F890
:101480003E100269016880F83C301AB1C86840F427
:101490008070C8604869002340F001004861C86856
:1014A00040F02000C86018467047000040F270000D
:1014B000C2F20000017D4F2904D0502904D100213F
:1014C00001E000BF012181608168B1FA81F1490921
:1014D000C160816811B1012101617047416801312A
:1014E0004160012101617047034690F83D002028CA
:1014F0000AD100294FF0010018BF002A00D170471F
:1015000093F83C00012801D10220704719620020A5
:1015100021219A84DA84186483F83D10196883F8CD
:101520003C00CA6842F08002CA60704740F2700016
:10153000C2F200000021016070470000FEE70000D9
:101540002DE9F0474FF6004540F21844CFF6FF75FD
:10155000C4F202044FF0007060514FF4001020609C
:101560004FF480184FF080694FF0807A8027012077
:10157000C4F80080C4F8009044F805A0C4F80074D2
:10158000FEF790FF4FF400060120C4F80064FEF758
:1015900089FF202020600120C4F80080C4F800905A
:1015A00044F805A0C4F80074FEF77CFF0120C4F8DD
:1015B0000064FEF777FF0220BDE8F047FEF772BF38
:1015C0002DE9F04381B04FF6004540F21844CFF6C4
:1015D000FF75C4F202044FF0007161514FF400181E
:1015E0004FF480194FF4806101284FF48070C4F8E3
:1015F0000080C4F8009008BF4FF080612160605106
:1016000080260120C4F80064FEF74CFF4FF4000769
:101610000120C4F80074FEF745FF4FF08060C4F865
:101620000080C4F8009020604FF08070605101206D
:10163000C4F80064FEF736FF0120C4F8007401B05E
:10164000BDE8F043FEF72EBF2DE9F0470778002FE5
:1016500008BFBDE8F08740F218444FF60046C4F2D8
:101660000204451ECFF6FF764FF400784FF0800954
:101670004FF4000A3809C1074FF0200144F80680F2
:1016800008BF4FF40011216081074FF0100158BFCF
:101690004FF4801140074FF48060216058BF4FF035
:1016A0008060206078B2B0F1FF3F4FF48070C8BF17
:1016B0004FF08070A0510120C4F80094FEF7F2FEB4
:1016C0000120C4F800A4FEF7EDFEF8074FF020005B
:1016D00008BF4FF400102060B8074FF0100058BF4B
:1016E0004FF48010206078074FF4806058BF4FF0AF
:1016F0008060206038074FF4807058BF4FF08070D2
:10170000A0510120C4F80094FEF7CCFE0120C4F8DB
:1017100000A4FEF7C7FEAF780135002FAAD1BDE8BF
:10172000F0870000FEE70000FEE7000070470000C1
:1017300070470000FEF7CEBFB0B592B0002443F66C
:1017400040000B94CDE90944CDE907440594CDE967
:101750000344CDE901440094C4F20200016802256B
:1017600041F080510160006800F0805000900098C6
:1017700047F200000094C4F20000016865F38F3165
:101780000160006800F4404000900098012009903A
:1017900010200A900E904FF4A8700F900420109023
:1017A0000720119006A80695CDE90C54FFF75CF9C7
:1017B00020B1EFF3108072B6FEE700BF0F20CDE935
:1017C00001054FF48050CDE9040401A802210394DF
:1017D000FFF73CF820B1EFF3108072B6FEE700BFD0
:1017E00012B0B0BD4EF68850CEF20000016841F450
:1017F0007001016070470000806B0021C185C184C9
:10180000FFF704BB81B090F83E10222921D18368F4
:101810000246B3F5805F09D152F8281F52F8183CF0
:10182000002B63D003685B680AE000BF52F8281FF2
:1018300013B90369002BF5D003685B6803F07F03DD
:101840000B70116801311160C18D01390A04C18525
:1018500002D001B0704700BF0168CA6822F02002C0
:10186000CA60CA6822F48072CA604A6922F0010222
:101870004A61202180F83E10016B01293ED10021F0
:10188000016300BF016851E8031F026821F01001E5
:1018900042E80313DBB1016851E8031F026821F03D
:1018A000100142E8031393B1016851E8031F026875
:1018B00021F0100142E803134BB1016851E8031F06
:1018C000026821F0100142E80313002BDAD101680D
:1018D0000A68D20606D5002200920A68009249687A
:1018E00000910099818D01B0FFF78EBA02685268AD
:1018F0006FF35F2221F8022B8162A5E701B0FFF7A9
:10190000D5BD000010B504460068D4E902C22369C1
:10191000016921F4405111430161626943EA0C01FC
:10192000E3691143C268194349F20C639A431143B6
:10193000C1604169A26921F4407141F20043114341
:1019400040F48062C4F201039A42416102D1FFF780
:1019500041F801E0FFF72AF8E16963681922B1F55F
:10196000004FA0FB020123D15A00DB0FFEF782FCDF
:1019700048F21F51C5F2EB11A0FB01235A094FF6A3
:101980009C73C0F6FF7303F1805302FB0300322304
:1019900003EBC000A0FB01014FF4F87000EA111046
:1019A00000EB0210C1F3421108442168886010BDA9
:1019B0009A009B0FFEF75EFC48F21F51C5F2EB1137
:1019C000A0FB01235A094FF69C73C0F6FF7302FB7C
:1019D0000300322303EB0010A0FB0101F02000EA1A
:1019E000511000EB0210C1F34311084421688860D4
:1019F00010BD000040F29800C2F20000FFF708BAE4
:101A0000FEE700002DE9F04F81B040F21844C4F227
:101A100002044FF400104FF480114FF6004720608D
:101A20004FF4001021604FF0806BCFF6FF774FF03E
:101A300080714FF000754FF400094FF48012C4F824
:101A400000B0E151E551C4F8009420601E202260EE
:101A5000C4F800B0E1514FF08076FEF723FD01207D
:101A6000FEF720FD4FF020081020E551C4F800805B
:101A700020604FF0800A0120C4F800B0E6514FF01A
:101A80008076C4F800A4FEF70DFD0520C4F800948C
:101A9000FEF708FD1020E551C4F800802060012009
:101AA000C4F800B0E651C4F800A4FEF7FBFC012026
:101AB000C4F80094FEF7F6FC1020E551C4F800804D
:101AC00020600120C4F800B0E6514FF08078C4F8DF
:101AD00000A4FEF7E7FC4FF400161020C4F80094B1
:101AE000E551266020600120C4F800B044F807806A
:101AF000C4F800A4FEF7D6FC1020C4F80094E55109
:101B0000266020604FF08070C4F800B0E0510120E2
:101B10004FF40018C4F800A4FEF7C4FC4FF480167C
:101B20004FF48070C4F80094E551C4F8008026603A
:101B3000C4F800B0E0510120C4F800A4FEF7B2FCE4
:101B40004FF08070C4F80094E551C4F8008026601E
:101B5000C4F800B0E05101204FF48016C4F800A48E
:101B6000FEF7A0FC4FF48060C4F80094E551C4F87F
:101B70000080266020604FF48070E0510120C4F89E
:101B800000A4FEF78FFC4FF08070C4F80094E5517C
:101B9000C4F800802660C4F800B0E05101204FF086
:101BA0008076C4F800A4FEF77DFC1020C4F80094F1
:101BB000E551C4F8008020604FF48060206001206F
:101BC000E651C4F800A4FEF76DFCC4F8009401B01F
:101BD000BDE8F08F88B0FEF78BFDFFF7ADFD002567
:101BE00043F63000CDE906550295C4F202000168C3
:101BF00040F2000B41F0040101600168C4F2020BE5
:101C000001F004010291029902950168002241F05D
:101C10008001016001684FF4607A01F08001029157
:101C200002990295016841F001010160016801F02B
:101C30000101029102990295016841F002010160DF
:101C400000684FF4607100F002000290029858465C
:101C5000FEF734FD0BF5806738464FF486610022AD
:101C60004FF48669FEF72AFD0BF5006630468021A9
:101C70000022FEF723FD01244FF404100DF10C089F
:101C8000CDE90404584641460394FEF743FC584608
:101C90004146CDE903A4CDE90555FEF73BFC3846A6
:101CA0004146CDE90394CDE90555FEF733FC80208C
:101CB00003A931C1304641460695FEF72BFC0620AC
:101CC00000210022FEF786FD0620FEF76FFD40F2A0
:101CD0007007C2F20007ABF5DE31384640F8281F26
:101CE0004FF416510C22C0E90115C0E90355C0E9B3
:101CF0000525C561FFF73EFB20B1EFF3108072B6FA
:101D0000FEE700BF07F1280007F11401012201904E
:101D10000E46FFF79BFBFFF775FEFFF711FC65A072
:101D2000FFF792FC0220FFF74BFC65A0FFF78CFC4D
:101D3000A8F1020046F2676848F21F5944F6D35AE8
:101D400048F6AD3BC6F26668C5F2EB19C1F2620A0D
:101D5000C6F6DB0B0025009007E000BF0198314676
:101D60000122FFF773FB00253D6138690028FCD094
:101D7000786838B30321024602F10903132B27D3F5
:101D800052FB08F39C1004EBD3730933132B21D3BC
:101D900052FB09F35C1104EBD3730933132B1AD3F1
:101DA00052FB0AF39C1104EBD37352FB0BF2141396
:101DB000093304EBD272132B01F10401DCD2033995
:101DC00009E000BF3020ADF80C0003AD56E000BFC5
:101DD000023900E0013903AA55541546009A11440E
:101DE00050FB08F2931003EBD27200F10903132B9E
:101DF00002EB8203A0EB430303F130034B703DD3AE
:101E000052FB08F39C0804EBD37303EB8303A2EBB0
:101E1000430309323033132A0B702FD350FB09F2DE
:101E2000531103EBD27252FB08F39C0804EBD373FB
:101E300003EB8303A2EB430309323033132A01F887
:101E4000013C1BD350FB0AF2931103EBD27252FBFD
:101E500008F39C0804EBD37303EB8303A2EB430367
:101E6000303350FB0BF001F8023C0313093203EB53
:101E7000D070122AA1F10401B2D800BFFFF760FBB5
:101E80000120FFF79DFB41F60270C0F60000FFF74E
:101E9000DBFB2846FFF7D8FBB86800283FF45EAFAD
:101EA0000220FFF78DFB41F60A70C0F60000FFF735
:101EB000CBFB53E757656C636F6D6520546F000073
:101EC000466C617070792053686179616E00000022
:101ED000F1EE100A4FF6FF71C0F2C03120EA0100A6
:101EE00040F04070E1EE100A704700000000000072
:101EF00000000102030406070809000000000102B7
:101F0000030453636F72653A200047616D65204F8B
:101F100076657200381F00080000002010000000E5
:101F2000D0010008481F000810000020D006000063
:101F3000EC0100080000000001000000100000009B
:081F40000024F4000000000081
:040000050800019559
:00000001FF
